{
  "contractName": "Greeter",
  "abi": [
    {
      "constant": true,
      "inputs": [],
      "name": "greet",
      "outputs": [
        {
          "internalType": "string",
          "name": "",
          "type": "string"
        }
      ],
      "payable": false,
      "stateMutability": "pure",
      "type": "function"
    }
  ],
  "bytecode": "0x608060405234801561001057600080fd5b5061011d806100206000396000f3fe6080604052348015600f57600080fd5b506004361060285760003560e01c8063cfae321714602d575b600080fd5b603360ab565b6040518080602001828103825283818151815260200191508051906020019080838360005b8381101560715780820151818401526020810190506058565b50505050905090810190601f168015609d5780820380516001836020036101000a031916815260200191505b509250505060405180910390f35b60606040518060400160405280600d81526020017f48656c6c6f2c20576f726c64210000000000000000000000000000000000000081525090509056fea265627a7a72315820b89c95e9f631d203cb5ef49146d67030b0bce18a62d6fd6a36440da82b9503fa64736f6c63430005100032",
  "source": "pragma solidity ^0.5.16;\n\ncontract Greeter {\n    function greet() public pure returns (string memory) {\n        return \"Hello, World!\";\n    }\n}\n",
  "sourcePath": "/Users/noguchi_tsukasa/.ghq/github.com/wild-mouse/hello-smart-contract/contracts/Greeter.sol",
  "compiler": {
    "name": "solc",
    "version": "0.5.16+commit.9c3226ce.Emscripten.clang"
  },
  "schemaVersion": "3.2.0",
  "updatedAt": "2020-07-18T12:43:48.797Z",
  "networkType": "ethereum",
  "devdoc": {
    "methods": {}
  },
  "userdoc": {
    "methods": {}
  }
}